{
  "contractName": "BTC",
  "abi": [
    {
      "inputs": [],
      "stateMutability": "nonpayable",
      "type": "constructor"
    },
    {
      "anonymous": false,
      "inputs": [
        {
          "indexed": true,
          "internalType": "address",
          "name": "from",
          "type": "address"
        },
        {
          "indexed": true,
          "internalType": "address",
          "name": "to",
          "type": "address"
        }
      ],
      "name": "OwnershipTransferRequested",
      "type": "event"
    },
    {
      "anonymous": false,
      "inputs": [
        {
          "indexed": true,
          "internalType": "address",
          "name": "from",
          "type": "address"
        },
        {
          "indexed": true,
          "internalType": "address",
          "name": "to",
          "type": "address"
        }
      ],
      "name": "OwnershipTransferred",
      "type": "event"
    },
    {
      "inputs": [],
      "name": "acceptOwnership",
      "outputs": [],
      "stateMutability": "nonpayable",
      "type": "function"
    },
    {
      "inputs": [],
      "name": "owner",
      "outputs": [
        {
          "internalType": "address",
          "name": "",
          "type": "address"
        }
      ],
      "stateMutability": "view",
      "type": "function",
      "constant": true
    },
    {
      "inputs": [],
      "name": "price",
      "outputs": [
        {
          "internalType": "uint256",
          "name": "",
          "type": "uint256"
        }
      ],
      "stateMutability": "view",
      "type": "function",
      "constant": true
    },
    {
      "inputs": [
        {
          "internalType": "address",
          "name": "to",
          "type": "address"
        }
      ],
      "name": "transferOwnership",
      "outputs": [],
      "stateMutability": "nonpayable",
      "type": "function"
    },
    {
      "inputs": [
        {
          "internalType": "uint256",
          "name": "_price",
          "type": "uint256"
        }
      ],
      "name": "setPairInfo",
      "outputs": [],
      "stateMutability": "nonpayable",
      "type": "function"
    }
  ],
  "bytecode": "0x608060405234801561001057600080fd5b50338060008073ffffffffffffffffffffffffffffffffffffffff168273ffffffffffffffffffffffffffffffffffffffff161415610084576040517f08c379a000000000000000000000000000000000000000000000000000000000815260040161007b906102d8565b60405180910390fd5b816000806101000a81548173ffffffffffffffffffffffffffffffffffffffff021916908373ffffffffffffffffffffffffffffffffffffffff160217905550600073ffffffffffffffffffffffffffffffffffffffff168173ffffffffffffffffffffffffffffffffffffffff1614610108576101078161016560201b60201c565b5b50505073f7a6c2d8485d5d99e35ce89e2260f367afae7ea2600360006101000a81548173ffffffffffffffffffffffffffffffffffffffff021916908373ffffffffffffffffffffffffffffffffffffffff16021790555061037b565b3373ffffffffffffffffffffffffffffffffffffffff168173ffffffffffffffffffffffffffffffffffffffff1614156101d4576040517f08c379a00000000000000000000000000000000000000000000000000000000081526004016101cb906102f8565b60405180910390fd5b80600160006101000a81548173ffffffffffffffffffffffffffffffffffffffff021916908373ffffffffffffffffffffffffffffffffffffffff1602179055508073ffffffffffffffffffffffffffffffffffffffff1660008054906101000a900473ffffffffffffffffffffffffffffffffffffffff1673ffffffffffffffffffffffffffffffffffffffff167fed8889f560326eb138920d842192f0eb3dd22b4f139c87a2c57538e05bae127860405160405180910390a350565b600061029f601883610318565b91506102aa82610329565b602082019050919050565b60006102c2601783610318565b91506102cd82610352565b602082019050919050565b600060208201905081810360008301526102f181610292565b9050919050565b60006020820190508181036000830152610311816102b5565b9050919050565b600082825260208201905092915050565b7f43616e6e6f7420736574206f776e657220746f207a65726f0000000000000000600082015250565b7f43616e6e6f74207472616e7366657220746f2073656c66000000000000000000600082015250565b6107a58061038a6000396000f3fe608060405234801561001057600080fd5b50600436106100575760003560e01c806379ba50971461005c578063865e7fe5146100665780638da5cb5b14610082578063a035b1fe146100a0578063f2fde38b146100be575b600080fd5b6100646100da565b005b610080600480360381019061007b919061052a565b61026f565b005b61008a6102d3565b60405161009791906105de565b60405180910390f35b6100a86102fc565b6040516100b59190610659565b60405180910390f35b6100d860048036038101906100d391906104fd565b610302565b005b600160009054906101000a900473ffffffffffffffffffffffffffffffffffffffff1673ffffffffffffffffffffffffffffffffffffffff163373ffffffffffffffffffffffffffffffffffffffff161461016a576040517f08c379a0000000000000000000000000000000000000000000000000000000008152600401610161906105f9565b60405180910390fd5b60008060009054906101000a900473ffffffffffffffffffffffffffffffffffffffff169050336000806101000a81548173ffffffffffffffffffffffffffffffffffffffff021916908373ffffffffffffffffffffffffffffffffffffffff1602179055506000600160006101000a81548173ffffffffffffffffffffffffffffffffffffffff021916908373ffffffffffffffffffffffffffffffffffffffff1602179055503373ffffffffffffffffffffffffffffffffffffffff168173ffffffffffffffffffffffffffffffffffffffff167f8be0079c531659141344cd1fd0a4f28419497f9722a3daafe3b4186f6b6457e060405160405180910390a350565b600360009054906101000a900473ffffffffffffffffffffffffffffffffffffffff1673ffffffffffffffffffffffffffffffffffffffff163373ffffffffffffffffffffffffffffffffffffffff16146102c957600080fd5b8060028190555050565b60008060009054906101000a900473ffffffffffffffffffffffffffffffffffffffff16905090565b60025481565b61030a610316565b610313816103a6565b50565b60008054906101000a900473ffffffffffffffffffffffffffffffffffffffff1673ffffffffffffffffffffffffffffffffffffffff163373ffffffffffffffffffffffffffffffffffffffff16146103a4576040517f08c379a000000000000000000000000000000000000000000000000000000000815260040161039b90610619565b60405180910390fd5b565b3373ffffffffffffffffffffffffffffffffffffffff168173ffffffffffffffffffffffffffffffffffffffff161415610415576040517f08c379a000000000000000000000000000000000000000000000000000000000815260040161040c90610639565b60405180910390fd5b80600160006101000a81548173ffffffffffffffffffffffffffffffffffffffff021916908373ffffffffffffffffffffffffffffffffffffffff1602179055508073ffffffffffffffffffffffffffffffffffffffff1660008054906101000a900473ffffffffffffffffffffffffffffffffffffffff1673ffffffffffffffffffffffffffffffffffffffff167fed8889f560326eb138920d842192f0eb3dd22b4f139c87a2c57538e05bae127860405160405180910390a350565b6000813590506104e281610741565b92915050565b6000813590506104f781610758565b92915050565b600060208284031215610513576105126106c1565b5b6000610521848285016104d3565b91505092915050565b6000602082840312156105405761053f6106c1565b5b600061054e848285016104e8565b91505092915050565b61056081610685565b82525050565b6000610573601683610674565b915061057e826106c6565b602082019050919050565b6000610596601683610674565b91506105a1826106ef565b602082019050919050565b60006105b9601783610674565b91506105c482610718565b602082019050919050565b6105d8816106b7565b82525050565b60006020820190506105f36000830184610557565b92915050565b6000602082019050818103600083015261061281610566565b9050919050565b6000602082019050818103600083015261063281610589565b9050919050565b60006020820190508181036000830152610652816105ac565b9050919050565b600060208201905061066e60008301846105cf565b92915050565b600082825260208201905092915050565b600061069082610697565b9050919050565b600073ffffffffffffffffffffffffffffffffffffffff82169050919050565b6000819050919050565b600080fd5b7f4d7573742062652070726f706f736564206f776e657200000000000000000000600082015250565b7f4f6e6c792063616c6c61626c65206279206f776e657200000000000000000000600082015250565b7f43616e6e6f74207472616e7366657220746f2073656c66000000000000000000600082015250565b61074a81610685565b811461075557600080fd5b50565b610761816106b7565b811461076c57600080fd5b5056fea264697066735822122036b7985452d57780b2e0001e5fbc7f75ca049e924c28faa182ee00c7b8bfc64064736f6c63430008070033",
  "immutableReferences": {},
  "source": "// SPDX-License-Identifier: GPL-3.0\npragma solidity ^0.8.7;\n\nimport '@chainlink/contracts/src/v0.8/ConfirmedOwner.sol';\n\n\n\ncontract BTC is ConfirmedOwner {\n\n    uint public price;\n\n    \n    address private node;\n        \n    constructor() ConfirmedOwner(msg.sender) {\n        node = 0xF7A6C2D8485d5d99E35CE89E2260f367AfAe7Ea2; // only node address is able to update price\n    }\n\n    modifier onlyNode {\n        require(msg.sender == node);\n        _;\n    }\n\n    function setPairInfo(uint _price) public onlyNode {\n        price = _price;\n    }\n}",
  "sourcePath": "/Users/dolph5n/Desktop/APED/nodejs_smartcontract_automation22NOV/contracts/BTC.sol",
  "compiler": {
    "name": "solc",
    "version": "0.8.7+commit.e28d00a7.Emscripten.clang"
  },
  "schemaVersion": "3.4.7",
  "updatedAt": "2022-11-23T08:00:01.649Z",
  "networkType": "ethereum",
  "devdoc": {
    "kind": "dev",
    "methods": {},
    "version": 1
  },
  "userdoc": {
    "kind": "user",
    "methods": {
      "acceptOwnership()": {
        "notice": "Allows an ownership transfer to be completed by the recipient."
      },
      "owner()": {
        "notice": "Get the current owner"
      },
      "transferOwnership(address)": {
        "notice": "Allows an owner to begin transferring ownership to a new address, pending."
      }
    },
    "version": 1
  }
}